{
  "address": "0x9B61386Ca17304EBfc2a82496c605fAe386601e2",
  "abi": [
    {
      "inputs": [
        {
          "internalType": "address",
          "name": "target",
          "type": "address"
        }
      ],
      "name": "AddressEmptyCode",
      "type": "error"
    },
    {
      "inputs": [
        {
          "internalType": "address",
          "name": "account",
          "type": "address"
        }
      ],
      "name": "AddressInsufficientBalance",
      "type": "error"
    },
    {
      "inputs": [
        {
          "internalType": "address",
          "name": "implementation",
          "type": "address"
        }
      ],
      "name": "ERC1967InvalidImplementation",
      "type": "error"
    },
    {
      "inputs": [],
      "name": "ERC1967NonPayable",
      "type": "error"
    },
    {
      "inputs": [
        {
          "internalType": "address",
          "name": "spender",
          "type": "address"
        },
        {
          "internalType": "uint256",
          "name": "allowance",
          "type": "uint256"
        },
        {
          "internalType": "uint256",
          "name": "needed",
          "type": "uint256"
        }
      ],
      "name": "ERC20InsufficientAllowance",
      "type": "error"
    },
    {
      "inputs": [
        {
          "internalType": "address",
          "name": "sender",
          "type": "address"
        },
        {
          "internalType": "uint256",
          "name": "balance",
          "type": "uint256"
        },
        {
          "internalType": "uint256",
          "name": "needed",
          "type": "uint256"
        }
      ],
      "name": "ERC20InsufficientBalance",
      "type": "error"
    },
    {
      "inputs": [
        {
          "internalType": "address",
          "name": "approver",
          "type": "address"
        }
      ],
      "name": "ERC20InvalidApprover",
      "type": "error"
    },
    {
      "inputs": [
        {
          "internalType": "address",
          "name": "receiver",
          "type": "address"
        }
      ],
      "name": "ERC20InvalidReceiver",
      "type": "error"
    },
    {
      "inputs": [
        {
          "internalType": "address",
          "name": "sender",
          "type": "address"
        }
      ],
      "name": "ERC20InvalidSender",
      "type": "error"
    },
    {
      "inputs": [
        {
          "internalType": "address",
          "name": "spender",
          "type": "address"
        }
      ],
      "name": "ERC20InvalidSpender",
      "type": "error"
    },
    {
      "inputs": [
        {
          "internalType": "address",
          "name": "owner",
          "type": "address"
        },
        {
          "internalType": "uint256",
          "name": "shares",
          "type": "uint256"
        },
        {
          "internalType": "uint256",
          "name": "max",
          "type": "uint256"
        }
      ],
      "name": "ERC4626ExceededMaxRedeem",
      "type": "error"
    },
    {
      "inputs": [],
      "name": "EnforcedPause",
      "type": "error"
    },
    {
      "inputs": [],
      "name": "ExpectedPause",
      "type": "error"
    },
    {
      "inputs": [],
      "name": "FailedInnerCall",
      "type": "error"
    },
    {
      "inputs": [],
      "name": "InvalidInitialization",
      "type": "error"
    },
    {
      "inputs": [],
      "name": "MathOverflowedMulDiv",
      "type": "error"
    },
    {
      "inputs": [],
      "name": "NotInitializing",
      "type": "error"
    },
    {
      "inputs": [
        {
          "internalType": "address",
          "name": "owner",
          "type": "address"
        }
      ],
      "name": "OwnableInvalidOwner",
      "type": "error"
    },
    {
      "inputs": [
        {
          "internalType": "address",
          "name": "account",
          "type": "address"
        }
      ],
      "name": "OwnableUnauthorizedAccount",
      "type": "error"
    },
    {
      "inputs": [],
      "name": "QueueEmpty",
      "type": "error"
    },
    {
      "inputs": [],
      "name": "QueueFull",
      "type": "error"
    },
    {
      "inputs": [],
      "name": "QueueOutOfBounds",
      "type": "error"
    },
    {
      "inputs": [
        {
          "internalType": "address",
          "name": "token",
          "type": "address"
        }
      ],
      "name": "SafeERC20FailedOperation",
      "type": "error"
    },
    {
      "inputs": [],
      "name": "UUPSUnauthorizedCallContext",
      "type": "error"
    },
    {
      "inputs": [
        {
          "internalType": "bytes32",
          "name": "slot",
          "type": "bytes32"
        }
      ],
      "name": "UUPSUnsupportedProxiableUUID",
      "type": "error"
    },
    {
      "anonymous": false,
      "inputs": [
        {
          "indexed": true,
          "internalType": "address",
          "name": "owner",
          "type": "address"
        },
        {
          "indexed": true,
          "internalType": "address",
          "name": "spender",
          "type": "address"
        },
        {
          "indexed": false,
          "internalType": "uint256",
          "name": "value",
          "type": "uint256"
        }
      ],
      "name": "Approval",
      "type": "event"
    },
    {
      "anonymous": false,
      "inputs": [
        {
          "indexed": true,
          "internalType": "address",
          "name": "sender",
          "type": "address"
        },
        {
          "indexed": true,
          "internalType": "address",
          "name": "owner",
          "type": "address"
        },
        {
          "indexed": false,
          "internalType": "uint256",
          "name": "assets",
          "type": "uint256"
        },
        {
          "indexed": false,
          "internalType": "uint256",
          "name": "shares",
          "type": "uint256"
        }
      ],
      "name": "Deposit",
      "type": "event"
    },
    {
      "anonymous": false,
      "inputs": [
        {
          "indexed": false,
          "internalType": "uint64",
          "name": "version",
          "type": "uint64"
        }
      ],
      "name": "Initialized",
      "type": "event"
    },
    {
      "anonymous": false,
      "inputs": [
        {
          "indexed": true,
          "internalType": "address",
          "name": "previousOwner",
          "type": "address"
        },
        {
          "indexed": true,
          "internalType": "address",
          "name": "newOwner",
          "type": "address"
        }
      ],
      "name": "OwnershipTransferred",
      "type": "event"
    },
    {
      "anonymous": false,
      "inputs": [
        {
          "indexed": false,
          "internalType": "address",
          "name": "account",
          "type": "address"
        }
      ],
      "name": "Paused",
      "type": "event"
    },
    {
      "anonymous": false,
      "inputs": [
        {
          "indexed": false,
          "internalType": "uint256",
          "name": "price",
          "type": "uint256"
        }
      ],
      "name": "PriceUpdate",
      "type": "event"
    },
    {
      "anonymous": false,
      "inputs": [
        {
          "indexed": true,
          "internalType": "address",
          "name": "from",
          "type": "address"
        },
        {
          "indexed": true,
          "internalType": "address",
          "name": "to",
          "type": "address"
        },
        {
          "indexed": false,
          "internalType": "uint256",
          "name": "value",
          "type": "uint256"
        }
      ],
      "name": "Transfer",
      "type": "event"
    },
    {
      "anonymous": false,
      "inputs": [
        {
          "indexed": false,
          "internalType": "address",
          "name": "account",
          "type": "address"
        }
      ],
      "name": "Unpaused",
      "type": "event"
    },
    {
      "anonymous": false,
      "inputs": [
        {
          "indexed": true,
          "internalType": "address",
          "name": "implementation",
          "type": "address"
        }
      ],
      "name": "Upgraded",
      "type": "event"
    },
    {
      "anonymous": false,
      "inputs": [
        {
          "indexed": true,
          "internalType": "address",
          "name": "sender",
          "type": "address"
        },
        {
          "indexed": true,
          "internalType": "address",
          "name": "receiver",
          "type": "address"
        },
        {
          "indexed": true,
          "internalType": "address",
          "name": "owner",
          "type": "address"
        },
        {
          "indexed": false,
          "internalType": "uint256",
          "name": "assets",
          "type": "uint256"
        },
        {
          "indexed": false,
          "internalType": "uint256",
          "name": "shares",
          "type": "uint256"
        }
      ],
      "name": "Withdraw",
      "type": "event"
    },
    {
      "inputs": [],
      "name": "FEE_DECIMALS",
      "outputs": [
        {
          "internalType": "uint256",
          "name": "",
          "type": "uint256"
        }
      ],
      "stateMutability": "view",
      "type": "function"
    },
    {
      "inputs": [],
      "name": "PRICE_DECIMALS",
      "outputs": [
        {
          "internalType": "uint256",
          "name": "",
          "type": "uint256"
        }
      ],
      "stateMutability": "view",
      "type": "function"
    },
    {
      "inputs": [],
      "name": "UPGRADE_INTERFACE_VERSION",
      "outputs": [
        {
          "internalType": "string",
          "name": "",
          "type": "string"
        }
      ],
      "stateMutability": "view",
      "type": "function"
    },
    {
      "inputs": [
        {
          "internalType": "address",
          "name": "owner",
          "type": "address"
        },
        {
          "internalType": "address",
          "name": "spender",
          "type": "address"
        }
      ],
      "name": "allowance",
      "outputs": [
        {
          "internalType": "uint256",
          "name": "",
          "type": "uint256"
        }
      ],
      "stateMutability": "view",
      "type": "function"
    },
    {
      "inputs": [
        {
          "internalType": "address",
          "name": "spender",
          "type": "address"
        },
        {
          "internalType": "uint256",
          "name": "value",
          "type": "uint256"
        }
      ],
      "name": "approve",
      "outputs": [
        {
          "internalType": "bool",
          "name": "",
          "type": "bool"
        }
      ],
      "stateMutability": "nonpayable",
      "type": "function"
    },
    {
      "inputs": [],
      "name": "asset",
      "outputs": [
        {
          "internalType": "address",
          "name": "",
          "type": "address"
        }
      ],
      "stateMutability": "view",
      "type": "function"
    },
    {
      "inputs": [
        {
          "internalType": "address",
          "name": "account",
          "type": "address"
        }
      ],
      "name": "balanceOf",
      "outputs": [
        {
          "internalType": "uint256",
          "name": "",
          "type": "uint256"
        }
      ],
      "stateMutability": "view",
      "type": "function"
    },
    {
      "inputs": [
        {
          "internalType": "uint256",
          "name": "shares",
          "type": "uint256"
        }
      ],
      "name": "convertToAssets",
      "outputs": [
        {
          "internalType": "uint256",
          "name": "",
          "type": "uint256"
        }
      ],
      "stateMutability": "view",
      "type": "function"
    },
    {
      "inputs": [
        {
          "internalType": "uint256",
          "name": "assets",
          "type": "uint256"
        }
      ],
      "name": "convertToShares",
      "outputs": [
        {
          "internalType": "uint256",
          "name": "",
          "type": "uint256"
        }
      ],
      "stateMutability": "view",
      "type": "function"
    },
    {
      "inputs": [],
      "name": "createdAt",
      "outputs": [
        {
          "internalType": "uint32",
          "name": "",
          "type": "uint32"
        }
      ],
      "stateMutability": "view",
      "type": "function"
    },
    {
      "inputs": [],
      "name": "decimals",
      "outputs": [
        {
          "internalType": "uint8",
          "name": "",
          "type": "uint8"
        }
      ],
      "stateMutability": "view",
      "type": "function"
    },
    {
      "inputs": [
        {
          "internalType": "uint256",
          "name": "assets",
          "type": "uint256"
        },
        {
          "internalType": "address",
          "name": "receiver",
          "type": "address"
        }
      ],
      "name": "deposit",
      "outputs": [],
      "stateMutability": "nonpayable",
      "type": "function"
    },
    {
      "inputs": [
        {
          "internalType": "string",
          "name": "name_",
          "type": "string"
        },
        {
          "internalType": "string",
          "name": "symbol_",
          "type": "string"
        },
        {
          "internalType": "contract IERC20",
          "name": "asset_",
          "type": "address"
        },
        {
          "internalType": "address",
          "name": "owner_",
          "type": "address"
        }
      ],
      "name": "initialize",
      "outputs": [],
      "stateMutability": "nonpayable",
      "type": "function"
    },
    {
      "inputs": [
        {
          "internalType": "address",
          "name": "",
          "type": "address"
        }
      ],
      "name": "maxDeposit",
      "outputs": [
        {
          "internalType": "uint256",
          "name": "",
          "type": "uint256"
        }
      ],
      "stateMutability": "view",
      "type": "function"
    },
    {
      "inputs": [
        {
          "internalType": "address",
          "name": "owner_",
          "type": "address"
        }
      ],
      "name": "maxRedeem",
      "outputs": [
        {
          "internalType": "uint256",
          "name": "",
          "type": "uint256"
        }
      ],
      "stateMutability": "view",
      "type": "function"
    },
    {
      "inputs": [],
      "name": "name",
      "outputs": [
        {
          "internalType": "string",
          "name": "",
          "type": "string"
        }
      ],
      "stateMutability": "view",
      "type": "function"
    },
    {
      "inputs": [],
      "name": "owner",
      "outputs": [
        {
          "internalType": "address",
          "name": "",
          "type": "address"
        }
      ],
      "stateMutability": "view",
      "type": "function"
    },
    {
      "inputs": [],
      "name": "pause",
      "outputs": [],
      "stateMutability": "nonpayable",
      "type": "function"
    },
    {
      "inputs": [],
      "name": "paused",
      "outputs": [
        {
          "internalType": "bool",
          "name": "",
          "type": "bool"
        }
      ],
      "stateMutability": "view",
      "type": "function"
    },
    {
      "inputs": [],
      "name": "pendingDeposits",
      "outputs": [
        {
          "components": [
            {
              "internalType": "address",
              "name": "sender",
              "type": "address"
            },
            {
              "internalType": "address",
              "name": "receiver",
              "type": "address"
            },
            {
              "internalType": "uint256",
              "name": "assets",
              "type": "uint256"
            },
            {
              "internalType": "uint32",
              "name": "timestamp",
              "type": "uint32"
            }
          ],
          "internalType": "struct Vault.DepositItem[]",
          "name": "",
          "type": "tuple[]"
        }
      ],
      "stateMutability": "view",
      "type": "function"
    },
    {
      "inputs": [],
      "name": "pendingRedeems",
      "outputs": [
        {
          "components": [
            {
              "internalType": "address",
              "name": "caller",
              "type": "address"
            },
            {
              "internalType": "address",
              "name": "owner",
              "type": "address"
            },
            {
              "internalType": "address",
              "name": "receiver",
              "type": "address"
            },
            {
              "internalType": "uint256",
              "name": "shares",
              "type": "uint256"
            },
            {
              "internalType": "uint32",
              "name": "timestamp",
              "type": "uint32"
            }
          ],
          "internalType": "struct Vault.RedeemItem[]",
          "name": "",
          "type": "tuple[]"
        }
      ],
      "stateMutability": "view",
      "type": "function"
    },
    {
      "inputs": [
        {
          "internalType": "uint256",
          "name": "assets",
          "type": "uint256"
        }
      ],
      "name": "previewDeposit",
      "outputs": [
        {
          "internalType": "uint256",
          "name": "",
          "type": "uint256"
        }
      ],
      "stateMutability": "view",
      "type": "function"
    },
    {
      "inputs": [
        {
          "internalType": "uint128",
          "name": "number",
          "type": "uint128"
        }
      ],
      "name": "previewProcessDeposits",
      "outputs": [
        {
          "internalType": "uint256",
          "name": "assets",
          "type": "uint256"
        },
        {
          "internalType": "uint256",
          "name": "shares",
          "type": "uint256"
        }
      ],
      "stateMutability": "view",
      "type": "function"
    },
    {
      "inputs": [
        {
          "internalType": "uint128",
          "name": "number",
          "type": "uint128"
        }
      ],
      "name": "previewProcessRedeems",
      "outputs": [
        {
          "internalType": "uint256",
          "name": "assets",
          "type": "uint256"
        },
        {
          "internalType": "uint256",
          "name": "shares",
          "type": "uint256"
        },
        {
          "internalType": "uint256",
          "name": "fee",
          "type": "uint256"
        }
      ],
      "stateMutability": "view",
      "type": "function"
    },
    {
      "inputs": [
        {
          "internalType": "uint256",
          "name": "shares",
          "type": "uint256"
        }
      ],
      "name": "previewRedeem",
      "outputs": [
        {
          "internalType": "uint256",
          "name": "",
          "type": "uint256"
        }
      ],
      "stateMutability": "view",
      "type": "function"
    },
    {
      "inputs": [],
      "name": "price",
      "outputs": [
        {
          "internalType": "uint256",
          "name": "",
          "type": "uint256"
        }
      ],
      "stateMutability": "view",
      "type": "function"
    },
    {
      "inputs": [],
      "name": "priceUpdatedAt",
      "outputs": [
        {
          "internalType": "uint32",
          "name": "",
          "type": "uint32"
        }
      ],
      "stateMutability": "view",
      "type": "function"
    },
    {
      "inputs": [
        {
          "internalType": "uint128",
          "name": "number",
          "type": "uint128"
        }
      ],
      "name": "processDeposits",
      "outputs": [],
      "stateMutability": "nonpayable",
      "type": "function"
    },
    {
      "inputs": [
        {
          "internalType": "uint128",
          "name": "number",
          "type": "uint128"
        },
        {
          "internalType": "uint256",
          "name": "total",
          "type": "uint256"
        }
      ],
      "name": "processRedeems",
      "outputs": [],
      "stateMutability": "nonpayable",
      "type": "function"
    },
    {
      "inputs": [],
      "name": "proxiableUUID",
      "outputs": [
        {
          "internalType": "bytes32",
          "name": "",
          "type": "bytes32"
        }
      ],
      "stateMutability": "view",
      "type": "function"
    },
    {
      "inputs": [
        {
          "internalType": "uint256",
          "name": "shares",
          "type": "uint256"
        },
        {
          "internalType": "address",
          "name": "receiver",
          "type": "address"
        },
        {
          "internalType": "address",
          "name": "owner_",
          "type": "address"
        }
      ],
      "name": "redeem",
      "outputs": [],
      "stateMutability": "nonpayable",
      "type": "function"
    },
    {
      "inputs": [],
      "name": "renounceOwnership",
      "outputs": [],
      "stateMutability": "nonpayable",
      "type": "function"
    },
    {
      "inputs": [],
      "name": "symbol",
      "outputs": [
        {
          "internalType": "string",
          "name": "",
          "type": "string"
        }
      ],
      "stateMutability": "view",
      "type": "function"
    },
    {
      "inputs": [],
      "name": "totalAssets",
      "outputs": [
        {
          "internalType": "uint256",
          "name": "",
          "type": "uint256"
        }
      ],
      "stateMutability": "view",
      "type": "function"
    },
    {
      "inputs": [],
      "name": "totalSupply",
      "outputs": [
        {
          "internalType": "uint256",
          "name": "",
          "type": "uint256"
        }
      ],
      "stateMutability": "view",
      "type": "function"
    },
    {
      "inputs": [
        {
          "internalType": "address",
          "name": "to",
          "type": "address"
        },
        {
          "internalType": "uint256",
          "name": "value",
          "type": "uint256"
        }
      ],
      "name": "transfer",
      "outputs": [
        {
          "internalType": "bool",
          "name": "",
          "type": "bool"
        }
      ],
      "stateMutability": "nonpayable",
      "type": "function"
    },
    {
      "inputs": [
        {
          "internalType": "address",
          "name": "from",
          "type": "address"
        },
        {
          "internalType": "address",
          "name": "to",
          "type": "address"
        },
        {
          "internalType": "uint256",
          "name": "value",
          "type": "uint256"
        }
      ],
      "name": "transferFrom",
      "outputs": [
        {
          "internalType": "bool",
          "name": "",
          "type": "bool"
        }
      ],
      "stateMutability": "nonpayable",
      "type": "function"
    },
    {
      "inputs": [
        {
          "internalType": "address",
          "name": "newOwner",
          "type": "address"
        }
      ],
      "name": "transferOwnership",
      "outputs": [],
      "stateMutability": "nonpayable",
      "type": "function"
    },
    {
      "inputs": [],
      "name": "unpause",
      "outputs": [],
      "stateMutability": "nonpayable",
      "type": "function"
    },
    {
      "inputs": [
        {
          "internalType": "uint256",
          "name": "newPrice",
          "type": "uint256"
        }
      ],
      "name": "updatePrice",
      "outputs": [],
      "stateMutability": "nonpayable",
      "type": "function"
    },
    {
      "inputs": [
        {
          "internalType": "uint256",
          "name": "withdrawalFee_",
          "type": "uint256"
        }
      ],
      "name": "updateWithdrawalFee",
      "outputs": [],
      "stateMutability": "nonpayable",
      "type": "function"
    },
    {
      "inputs": [
        {
          "internalType": "address",
          "name": "newImplementation",
          "type": "address"
        },
        {
          "internalType": "bytes",
          "name": "data",
          "type": "bytes"
        }
      ],
      "name": "upgradeToAndCall",
      "outputs": [],
      "stateMutability": "payable",
      "type": "function"
    },
    {
      "inputs": [],
      "name": "withdrawalFee",
      "outputs": [
        {
          "internalType": "uint256",
          "name": "",
          "type": "uint256"
        }
      ],
      "stateMutability": "view",
      "type": "function"
    },
    {
      "inputs": [
        {
          "internalType": "contract IERC20",
          "name": "token",
          "type": "address"
        }
      ],
      "name": "withdrawalToOwner",
      "outputs": [],
      "stateMutability": "nonpayable",
      "type": "function"
    }
  ],
  "transactionHash": "0xb0936159db95d8918dd9b5241c01b048a457ee9226e78af17aa2188cb8cfd24e",
  "args": [],
  "numDeployments": 1,
  "solcInputHash": "959bc49a5cbad18294e0fd42d325b8d2",
  "bytecode": "0x60a06040523073ffffffffffffffffffffffffffffffffffffffff1660809073ffffffffffffffffffffffffffffffffffffffff1681525034801561004357600080fd5b506080516155766200006e600039600081816125f401528181612649015261280401526155766000f3fe6080604052600436106102675760003560e01c80638456cb5911610144578063b11c4eec116100b6578063d905777e1161007a578063d905777e1461092c578063dd62ed3e14610969578063ef8b30f7146109a6578063f1a640f8146109e3578063f2fde38b14610a0e578063f6e9dac014610a3757610267565b8063b11c4eec14610845578063ba08765214610870578063c6e6f59214610899578063ccf288c6146108d6578063cf09e0d01461090157610267565b80638f15b414116101085780638f15b414146107335780639119c0671461075c57806395d89b4114610787578063a035b1fe146107b2578063a9059cbb146107dd578063ad3cb1cc1461081a57610267565b80638456cb591461065f57806385187c8c146106765780638bc7e8c4146106b45780638d6cc56d146106df5780638da5cb5b1461070857610267565b8063402d267d116101dd5780635c074f44116101a15780635c074f44146105635780635c975abb1461058e5780636bcb0b7d146105b95780636e553f65146105e257806370a082311461060b578063715018a61461064857610267565b8063402d267d146104795780634cdad506146104b65780634f1ef286146104f357806352d1902d1461050f578063569b8e2c1461053a57610267565b806318160ddd1161022f57806318160ddd1461037b57806323b872dd146103a6578063313ce567146103e357806338d52e0f1461040e5780633a7f94f8146104395780633f4ba83a1461046257610267565b806301e1d1141461026c57806306fdde031461029757806307a2d13a146102c2578063095ea7b3146102ff57806309a323661461033c575b600080fd5b34801561027857600080fd5b50610281610a60565b60405161028e9190613bcf565b60405180910390f35b3480156102a357600080fd5b506102ac610a77565b6040516102b99190613c7a565b60405180910390f35b3480156102ce57600080fd5b506102e960048036038101906102e49190613cdc565b610b18565b6040516102f69190613bcf565b60405180910390f35b34801561030b57600080fd5b5061032660048036038101906103219190613d67565b610b3d565b6040516103339190613dc2565b60405180910390f35b34801561034857600080fd5b50610363600480360381019061035e9190613e25565b610b60565b60405161037293929190613e52565b60405180910390f35b34801561038757600080fd5b50610390610c5b565b60405161039d9190613bcf565b60405180910390f35b3480156103b257600080fd5b506103cd60048036038101906103c89190613e89565b610c73565b6040516103da9190613dc2565b60405180910390f35b3480156103ef57600080fd5b506103f8610ca2565b6040516104059190613ef8565b60405180910390f35b34801561041a57600080fd5b50610423610cb8565b6040516104309190613f22565b60405180910390f35b34801561044557600080fd5b50610460600480360381019061045b9190613e25565b610ce1565b005b34801561046e57600080fd5b50610477610e4c565b005b34801561048557600080fd5b506104a0600480360381019061049b9190613f3d565b610e5e565b6040516104ad9190613bcf565b60405180910390f35b3480156104c257600080fd5b506104dd60048036038101906104d89190613cdc565b610e88565b6040516104ea9190613bcf565b60405180910390f35b61050d6004803603810190610508919061409f565b610ecb565b005b34801561051b57600080fd5b50610524610eea565b6040516105319190614114565b60405180910390f35b34801561054657600080fd5b50610561600480360381019061055c9190613cdc565b610f1d565b005b34801561056f57600080fd5b50610578610f2f565b6040516105859190614270565b60405180910390f35b34801561059a57600080fd5b506105a3610ffa565b6040516105b09190613dc2565b60405180910390f35b3480156105c557600080fd5b506105e060048036038101906105db91906142d0565b61101f565b005b3480156105ee57600080fd5b50610609600480360381019061060491906142fd565b6111b0565b005b34801561061757600080fd5b50610632600480360381019061062d9190613f3d565b6112aa565b60405161063f9190613bcf565b60405180910390f35b34801561065457600080fd5b5061065d611301565b005b34801561066b57600080fd5b50610674611315565b005b34801561068257600080fd5b5061069d60048036038101906106989190613e25565b611327565b6040516106ab92919061433d565b60405180910390f35b3480156106c057600080fd5b506106c961142c565b6040516106d69190613bcf565b60405180910390f35b3480156106eb57600080fd5b5061070660048036038101906107019190613cdc565b611432565b005b34801561071457600080fd5b5061071d6114df565b60405161072a9190613f22565b60405180910390f35b34801561073f57600080fd5b5061075a60048036038101906107559190614407565b611517565b005b34801561076857600080fd5b5061077161178b565b60405161077e91906145bd565b60405180910390f35b34801561079357600080fd5b5061079c61188c565b6040516107a99190613c7a565b60405180910390f35b3480156107be57600080fd5b506107c761192d565b6040516107d49190613bcf565b60405180910390f35b3480156107e957600080fd5b5061080460048036038101906107ff9190613d67565b611933565b6040516108119190613dc2565b60405180910390f35b34801561082657600080fd5b5061082f611956565b60405161083c9190613c7a565b60405180910390f35b34801561085157600080fd5b5061085a61198f565b60405161086791906145ee565b60405180910390f35b34801561087c57600080fd5b5061089760048036038101906108929190614609565b6119a5565b005b3480156108a557600080fd5b506108c060048036038101906108bb9190613cdc565b611afe565b6040516108cd9190613bcf565b60405180910390f35b3480156108e257600080fd5b506108eb611b23565b6040516108f89190613bcf565b60405180910390f35b34801561090d57600080fd5b50610916611b28565b60405161092391906145ee565b60405180910390f35b34801561093857600080fd5b50610953600480360381019061094e9190613f3d565b611b3e565b6040516109609190613bcf565b60405180910390f35b34801561097557600080fd5b50610990600480360381019061098b919061465c565b611b50565b60405161099d9190613bcf565b60405180910390f35b3480156109b257600080fd5b506109cd60048036038101906109c89190613cdc565b611be5565b6040516109da9190613bcf565b60405180910390f35b3480156109ef57600080fd5b506109f8611bf7565b604051610a059190613bcf565b60405180910390f35b348015610a1a57600080fd5b50610a356004803603810190610a309190613f3d565b611bfc565b005b348015610a4357600080fd5b50610a5e6004803603810190610a59919061469c565b611c82565b005b6000610a72610a6d610c5b565b610b18565b905090565b60606000610a83611f36565b9050806003018054610a949061470b565b80601f0160208091040260200160405190810160405280929190818152602001828054610ac09061470b565b8015610b0d5780601f10610ae257610100808354040283529160200191610b0d565b820191906000526020600020905b815481529060010190602001808311610af057829003601f168201915b505050505091505090565b6000610b36826001546012600a610b2f919061489e565b6000611f5e565b9050919050565b600080610b48611fb5565b9050610b55818585611fbd565b600191505092915050565b60008060006201518042610b7491906148e9565b600060199054906101000a900463ffffffff1663ffffffff1611610bcd576040517f08c379a0000000000000000000000000000000000000000000000000000000008152600401610bc490614969565b60405180910390fd5b60005b846fffffffffffffffffffffffffffffffff16811015610c32576000610bf7600583611fcf565b806020019051810190610c0a9190614a70565b9050806060015184610c1c9190614a9d565b9350508080610c2a90614ad1565b915050610bd0565b50610c3c82610e88565b925082610c4883610b18565b610c5291906148e9565b90509193909250565b600080610c66611f36565b9050806002015491505090565b600080610c7e611fb5565b9050610c8b8582856120fe565b610c96858585612192565b60019150509392505050565b60008060149054906101000a900460ff16905090565b60008060009054906101000a900473ffffffffffffffffffffffffffffffffffffffff16905090565b610ce9612286565b6201518042610cf891906148e9565b600060199054906101000a900463ffffffff1663ffffffff1611610d51576040517f08c379a0000000000000000000000000000000000000000000000000000000008152600401610d4890614969565b60405180910390fd5b60005b816fffffffffffffffffffffffffffffffff16816fffffffffffffffffffffffffffffffff161015610e48576000610d8c600361230d565b806020019051810190610d9f9190614b91565b90506000610db08260400151611afe565b9050610dc08260200151826124fe565b816020015173ffffffffffffffffffffffffffffffffffffffff16826000015173ffffffffffffffffffffffffffffffffffffffff167fdcbc1c05240f31ff3ad067ef1ee35ce4997762752e3a095284754544f4c709d7846040015184604051610e2b92919061433d565b60405180910390a350508080610e4090614bbe565b915050610d54565b5050565b610e54612286565b610e5c612580565b565b60007fffffffffffffffffffffffffffffffffffffffffffffffffffffffffffffffff9050919050565b600080610e9483610b18565b90506000610eb4826002546006600a610ead919061489e565b6001611f5e565b90508082610ec291906148e9565b92505050919050565b610ed36125f2565b610edc826126d8565b610ee682826126e3565b5050565b6000610ef4612802565b7f360894a13ba1a3210667c828492db98dca3e2076cc3735a920a3ca505d382bbc60001b905090565b610f25612286565b8060028190555050565b60606000610f3d6003612889565b905060008167ffffffffffffffff811115610f5b57610f5a613f74565b5b604051908082528060200260200182016040528015610f9457816020015b610f81613a88565b815260200190600190039081610f795790505b50905060005b82811015610ff157610fad600382611fcf565b806020019051810190610fc09190614b91565b828281518110610fd357610fd2614bf6565b5b60200260200101819052508080610fe990614ad1565b915050610f9a565b50809250505090565b6000806110056128e7565b90508060000160009054906101000a900460ff1691505090565b611027612286565b60008173ffffffffffffffffffffffffffffffffffffffff166370a08231306040518263ffffffff1660e01b81526004016110629190613f22565b602060405180830381865afa15801561107f573d6000803e3d6000fd5b505050506040513d601f19601f820116820180604052508101906110a39190614c25565b9050600081116110e8576040517f08c379a00000000000000000000000000000000000000000000000000000000081526004016110df90614c9e565b60405180910390fd5b8173ffffffffffffffffffffffffffffffffffffffff1663a9059cbb61110c6114df565b836040518363ffffffff1660e01b815260040161112a929190614cbe565b6020604051808303816000875af1158015611149573d6000803e3d6000fd5b505050506040513d601f19601f8201168201806040525081019061116d9190614d13565b6111ac576040517f08c379a00000000000000000000000000000000000000000000000000000000081526004016111a390614d8c565b60405180910390fd5b5050565b6111b861290f565b6111eb60008054906101000a900473ffffffffffffffffffffffffffffffffffffffff166111e4611fb5565b3085612950565b61121d60008054906101000a900473ffffffffffffffffffffffffffffffffffffffff166112176114df565b846129d2565b60006040518060800160405280611232611fb5565b73ffffffffffffffffffffffffffffffffffffffff1681526020018373ffffffffffffffffffffffffffffffffffffffff1681526020018481526020014263ffffffff1681525090506112a56003826040516020016112919190614e01565b604051602081830303815290604052612a51565b505050565b6000806112b5611f36565b90508060000160008473ffffffffffffffffffffffffffffffffffffffff1673ffffffffffffffffffffffffffffffffffffffff16815260200190815260200160002054915050919050565b611309612286565b6113136000612b80565b565b61131d612286565b611325612c57565b565b600080620151804261133991906148e9565b600060199054906101000a900463ffffffff1663ffffffff1611611392576040517f08c379a000000000000000000000000000000000000000000000000000000000815260040161138990614969565b60405180910390fd5b60005b836fffffffffffffffffffffffffffffffff16816fffffffffffffffffffffffffffffffff16101561141b5760006113e06003836fffffffffffffffffffffffffffffffff16611fcf565b8060200190518101906113f39190614b91565b90508060400151846114059190614a9d565b935050808061141390614bbe565b915050611395565b5061142582611afe565b9050915091565b60025481565b61143a612286565b6000811161147d576040517f08c379a000000000000000000000000000000000000000000000000000000000815260040161147490614e68565b60405180910390fd5b8060018190555042600060196101000a81548163ffffffff021916908363ffffffff1602179055507fae46785019700e30375a5d7b4f91e32f8060ef085111f896ebf889450aa2ab5a816040516114d49190613bcf565b60405180910390a150565b6000806114ea612cc9565b90508060000160009054906101000a900473ffffffffffffffffffffffffffffffffffffffff1691505090565b6000611521612cf1565b905060008160000160089054906101000a900460ff1615905060008260000160009054906101000a900467ffffffffffffffff1690506000808267ffffffffffffffff1614801561156f5750825b9050600060018367ffffffffffffffff161480156115a4575060003073ffffffffffffffffffffffffffffffffffffffff163b145b9050811580156115b2575080155b156115e9576040517ff92ee8a900000000000000000000000000000000000000000000000000000000815260040160405180910390fd5b60018560000160006101000a81548167ffffffffffffffff021916908367ffffffffffffffff16021790555083156116395760018560000160086101000a81548160ff0219169083151502179055505b6116438989612d19565b61164c86612d2f565b611654612d43565b866000806101000a81548173ffffffffffffffffffffffffffffffffffffffff021916908373ffffffffffffffffffffffffffffffffffffffff1602179055506000806116a089612d55565b91509150816116b05760126116b2565b805b600060146101000a81548160ff021916908360ff1602179055506012600a6116da919061489e565b60018190555042600060196101000a81548163ffffffff021916908363ffffffff16021790555042600060156101000a81548163ffffffff021916908363ffffffff160217905550505083156117805760008560000160086101000a81548160ff0219169083151502179055507fc7f505b2f371ae2175ee4913f4499e1f2633a7b5936321eed1cdaeb6115181d260016040516117779190614ee1565b60405180910390a15b505050505050505050565b606060006117996005612889565b905060008167ffffffffffffffff8111156117b7576117b6613f74565b5b6040519080825280602002602001820160405280156117f057816020015b6117dd613ae2565b8152602001906001900390816117d55790505b50905060005b82816fffffffffffffffffffffffffffffffff1610156118835761182d6005826fffffffffffffffffffffffffffffffff16611fcf565b8060200190518101906118409190614a70565b82826fffffffffffffffffffffffffffffffff168151811061186557611864614bf6565b5b6020026020010181905250808061187b90614bbe565b9150506117f6565b50809250505090565b60606000611898611f36565b90508060040180546118a99061470b565b80601f01602080910402602001604051908101604052809291908181526020018280546118d59061470b565b80156119225780601f106118f757610100808354040283529160200191611922565b820191906000526020600020905b81548152906001019060200180831161190557829003601f168201915b505050505091505090565b60015481565b60008061193e611fb5565b905061194b818585612192565b600191505092915050565b6040518060400160405280600581526020017f352e302e3000000000000000000000000000000000000000000000000000000081525081565b600060199054906101000a900463ffffffff1681565b6119ad61290f565b60006119b882611b3e565b905080841115611a03578184826040517fb94abeec0000000000000000000000000000000000000000000000000000000081526004016119fa93929190614efc565b60405180910390fd5b6000611a0d611fb5565b90508273ffffffffffffffffffffffffffffffffffffffff168173ffffffffffffffffffffffffffffffffffffffff1614611a4e57611a4d8382876120fe565b5b611a59833087612192565b60006040518060a001604052808373ffffffffffffffffffffffffffffffffffffffff1681526020018573ffffffffffffffffffffffffffffffffffffffff1681526020018673ffffffffffffffffffffffffffffffffffffffff1681526020018781526020014263ffffffff168152509050611af6600582604051602001611ae29190614f9b565b604051602081830303815290604052612a51565b505050505050565b6000611b1c826012600a611b12919061489e565b6001546000611f5e565b9050919050565b600681565b600060159054906101000a900463ffffffff1681565b6000611b49826112aa565b9050919050565b600080611b5b611f36565b90508060010160008573ffffffffffffffffffffffffffffffffffffffff1673ffffffffffffffffffffffffffffffffffffffff16815260200190815260200160002060008473ffffffffffffffffffffffffffffffffffffffff1673ffffffffffffffffffffffffffffffffffffffff1681526020019081526020016000205491505092915050565b6000611bf082611afe565b9050919050565b601281565b611c04612286565b600073ffffffffffffffffffffffffffffffffffffffff168173ffffffffffffffffffffffffffffffffffffffff1603611c765760006040517f1e4fbdf7000000000000000000000000000000000000000000000000000000008152600401611c6d9190613f22565b60405180910390fd5b611c7f81612b80565b50565b611c8a612286565b6201518042611c9991906148e9565b600060199054906101000a900463ffffffff1663ffffffff1611611cf2576040517f08c379a0000000000000000000000000000000000000000000000000000000008152600401611ce990614969565b60405180910390fd5b611d2560008054906101000a900473ffffffffffffffffffffffffffffffffffffffff16611d1e611fb5565b3084612950565b60005b826fffffffffffffffffffffffffffffffff16811015611e54576000611d4e600561230d565b806020019051810190611d619190614a70565b90506000611d728260600151610e88565b9050611d82308360600151612e65565b611db160008054906101000a900473ffffffffffffffffffffffffffffffffffffffff168360400151836129d2565b816020015173ffffffffffffffffffffffffffffffffffffffff16826040015173ffffffffffffffffffffffffffffffffffffffff16836000015173ffffffffffffffffffffffffffffffffffffffff167ffbde797d201c681b91056529119e0b02407c7bb96a4a2c75c01fc9667232c8db848660600151604051611e3792919061433d565b60405180910390a450508080611e4c90614ad1565b915050611d28565b5060008060009054906101000a900473ffffffffffffffffffffffffffffffffffffffff1673ffffffffffffffffffffffffffffffffffffffff166370a08231306040518263ffffffff1660e01b8152600401611eb19190613f22565b602060405180830381865afa158015611ece573d6000803e3d6000fd5b505050506040513d601f19601f82011682018060405250810190611ef29190614c25565b14611f32576040517f08c379a0000000000000000000000000000000000000000000000000000000008152600401611f2990615002565b60405180910390fd5b5050565b60007f52c63247e1f47db19d5ce0460030c497f067ca4cebf71ba98eeadabe20bace00905090565b600080611f6c868686612ee7565b9050611f7783612fee565b8015611f94575060008480611f8f57611f8e615022565b5b868809115b15611fa957600181611fa69190614a9d565b90505b80915050949350505050565b600033905090565b611fca838383600161301c565b505050565b6060611fda83612889565b8210612012576040517f580821e700000000000000000000000000000000000000000000000000000000815260040160405180910390fd5b826001016000838560000160009054906101000a90046fffffffffffffffffffffffffffffffff16016fffffffffffffffffffffffffffffffff166fffffffffffffffffffffffffffffffff16815260200190815260200160002080546120789061470b565b80601f01602080910402602001604051908101604052809291908181526020018280546120a49061470b565b80156120f15780601f106120c6576101008083540402835291602001916120f1565b820191906000526020600020905b8154815290600101906020018083116120d457829003601f168201915b5050505050905092915050565b600061210a8484611b50565b90507fffffffffffffffffffffffffffffffffffffffffffffffffffffffffffffffff811461218c578181101561217c578281836040517ffb8f41b200000000000000000000000000000000000000000000000000000000815260040161217393929190614efc565b60405180910390fd5b61218b8484848403600061301c565b5b50505050565b600073ffffffffffffffffffffffffffffffffffffffff168373ffffffffffffffffffffffffffffffffffffffff16036122045760006040517f96c6fd1e0000000000000000000000000000000000000000000000000000000081526004016121fb9190613f22565b60405180910390fd5b600073ffffffffffffffffffffffffffffffffffffffff168273ffffffffffffffffffffffffffffffffffffffff16036122765760006040517fec442f0500000000000000000000000000000000000000000000000000000000815260040161226d9190613f22565b60405180910390fd5b612281838383613202565b505050565b61228e611fb5565b73ffffffffffffffffffffffffffffffffffffffff166122ac6114df565b73ffffffffffffffffffffffffffffffffffffffff161461230b576122cf611fb5565b6040517f118cdaa70000000000000000000000000000000000000000000000000000000081526004016123029190613f22565b60405180910390fd5b565b606060008260000160009054906101000a90046fffffffffffffffffffffffffffffffff1690508260000160109054906101000a90046fffffffffffffffffffffffffffffffff166fffffffffffffffffffffffffffffffff16816fffffffffffffffffffffffffffffffff16036123b1576040517f75e52f4f00000000000000000000000000000000000000000000000000000000815260040160405180910390fd5b826001016000826fffffffffffffffffffffffffffffffff166fffffffffffffffffffffffffffffffff16815260200190815260200160002080546123f59061470b565b80601f01602080910402602001604051908101604052809291908181526020018280546124219061470b565b801561246e5780601f106124435761010080835404028352916020019161246e565b820191906000526020600020905b81548152906001019060200180831161245157829003601f168201915b50505050509150826001016000826fffffffffffffffffffffffffffffffff166fffffffffffffffffffffffffffffffff16815260200190815260200160002060006124ba9190613b59565b600181018360000160006101000a8154816fffffffffffffffffffffffffffffffff02191690836fffffffffffffffffffffffffffffffff16021790555050919050565b600073ffffffffffffffffffffffffffffffffffffffff168273ffffffffffffffffffffffffffffffffffffffff16036125705760006040517fec442f050000000000000000000000000000000000000000000000000000000081526004016125679190613f22565b60405180910390fd5b61257c60008383613202565b5050565b612588613441565b60006125926128e7565b905060008160000160006101000a81548160ff0219169083151502179055507f5db9ee0a495bf2e6ff9c91a7834c1ba4fdd244a5e8aa4e537bd38aeae4b073aa6125da611fb5565b6040516125e79190613f22565b60405180910390a150565b7f000000000000000000000000000000000000000000000000000000000000000073ffffffffffffffffffffffffffffffffffffffff163073ffffffffffffffffffffffffffffffffffffffff16148061269f57507f000000000000000000000000000000000000000000000000000000000000000073ffffffffffffffffffffffffffffffffffffffff16612686613481565b73ffffffffffffffffffffffffffffffffffffffff1614155b156126d6576040517fe07c8dba00000000000000000000000000000000000000000000000000000000815260040160405180910390fd5b565b6126e0612286565b50565b8173ffffffffffffffffffffffffffffffffffffffff166352d1902d6040518163ffffffff1660e01b8152600401602060405180830381865afa92505050801561274b57506040513d601f19601f82011682018060405250810190612748919061507d565b60015b61278c57816040517f4c9c8ce30000000000000000000000000000000000000000000000000000000081526004016127839190613f22565b60405180910390fd5b7f360894a13ba1a3210667c828492db98dca3e2076cc3735a920a3ca505d382bbc60001b81146127f357806040517faa1d49a40000000000000000000000000000000000000000000000000000000081526004016127ea9190614114565b60405180910390fd5b6127fd83836134d8565b505050565b7f000000000000000000000000000000000000000000000000000000000000000073ffffffffffffffffffffffffffffffffffffffff163073ffffffffffffffffffffffffffffffffffffffff1614612887576040517fe07c8dba00000000000000000000000000000000000000000000000000000000815260040160405180910390fd5b565b60008160000160009054906101000a90046fffffffffffffffffffffffffffffffff168260000160109054906101000a90046fffffffffffffffffffffffffffffffff16036fffffffffffffffffffffffffffffffff169050919050565b60007fcd5ed15c6e187e77e9aee88184c21f4f2182ab5827cb3b7e07fbedcd63f03300905090565b612917610ffa565b1561294e576040517fd93c066500000000000000000000000000000000000000000000000000000000815260040160405180910390fd5b565b6129cc848573ffffffffffffffffffffffffffffffffffffffff166323b872dd868686604051602401612985939291906150aa565b604051602081830303815290604052915060e01b6020820180517bffffffffffffffffffffffffffffffffffffffffffffffffffffffff838183161783525050505061354b565b50505050565b612a4c838473ffffffffffffffffffffffffffffffffffffffff1663a9059cbb8585604051602401612a05929190614cbe565b604051602081830303815290604052915060e01b6020820180517bffffffffffffffffffffffffffffffffffffffffffffffffffffffff838183161783525050505061354b565b505050565b60008260000160109054906101000a90046fffffffffffffffffffffffffffffffff1690508260000160009054906101000a90046fffffffffffffffffffffffffffffffff166fffffffffffffffffffffffffffffffff16600182016fffffffffffffffffffffffffffffffff1603612af6576040517f8acb5f2700000000000000000000000000000000000000000000000000000000815260040160405180910390fd5b81836001016000836fffffffffffffffffffffffffffffffff166fffffffffffffffffffffffffffffffff1681526020019081526020016000209081612b3c919061528e565b50600181018360000160106101000a8154816fffffffffffffffffffffffffffffffff02191690836fffffffffffffffffffffffffffffffff160217905550505050565b6000612b8a612cc9565b905060008160000160009054906101000a900473ffffffffffffffffffffffffffffffffffffffff169050828260000160006101000a81548173ffffffffffffffffffffffffffffffffffffffff021916908373ffffffffffffffffffffffffffffffffffffffff1602179055508273ffffffffffffffffffffffffffffffffffffffff168173ffffffffffffffffffffffffffffffffffffffff167f8be0079c531659141344cd1fd0a4f28419497f9722a3daafe3b4186f6b6457e060405160405180910390a3505050565b612c5f61290f565b6000612c696128e7565b905060018160000160006101000a81548160ff0219169083151502179055507f62e78cea01bee320cd4e420270b5ea74000d11b0c9f74754ebdbfc544b05a258612cb1611fb5565b604051612cbe9190613f22565b60405180910390a150565b60007f9016d09d72d40fdae2fd8ceac6b6234c7706214fd39c1cd1e609a0528c199300905090565b60007ff0c57e16840df040f15088dc2f81fe391c3923bec73e23a9662efc9c229c6a00905090565b612d216135e2565b612d2b8282613622565b5050565b612d376135e2565b612d408161365f565b50565b612d4b6135e2565b612d536136e5565b565b6000806000808473ffffffffffffffffffffffffffffffffffffffff1660405160240160405160208183030381529060405263313ce56760e01b6020820180517bffffffffffffffffffffffffffffffffffffffffffffffffffffffff8381831617835250505050604051612dca919061539c565b600060405180830381855afa9150503d8060008114612e05576040519150601f19603f3d011682016040523d82523d6000602084013e612e0a565b606091505b5091509150818015612e1e57506020815110155b15612e5657600081806020019051810190612e399190614c25565b905060ff80168111612e545760018194509450505050612e60565b505b6000809350935050505b915091565b600073ffffffffffffffffffffffffffffffffffffffff168273ffffffffffffffffffffffffffffffffffffffff1603612ed75760006040517f96c6fd1e000000000000000000000000000000000000000000000000000000008152600401612ece9190613f22565b60405180910390fd5b612ee382600083613202565b5050565b6000808385029050600080198587098281108382030391505060008103612f2257838281612f1857612f17615022565b5b0492505050612fe7565b808411612f5b576040517f227bc15300000000000000000000000000000000000000000000000000000000815260040160405180910390fd5b600084868809905082811182039150808303925060008560000386169050808604955080840493506001818260000304019050808302841793506000600287600302189050808702600203810290508087026002038102905080870260020381029050808702600203810290508087026002038102905080870260020381029050808502955050505050505b9392505050565b600060016002836003811115613007576130066153b3565b5b61301191906153e2565b60ff16149050919050565b6000613026611f36565b9050600073ffffffffffffffffffffffffffffffffffffffff168573ffffffffffffffffffffffffffffffffffffffff160361309a5760006040517fe602df050000000000000000000000000000000000000000000000000000000081526004016130919190613f22565b60405180910390fd5b600073ffffffffffffffffffffffffffffffffffffffff168473ffffffffffffffffffffffffffffffffffffffff160361310c5760006040517f94280d620000000000000000000000000000000000000000000000000000000081526004016131039190613f22565b60405180910390fd5b828160010160008773ffffffffffffffffffffffffffffffffffffffff1673ffffffffffffffffffffffffffffffffffffffff16815260200190815260200160002060008673ffffffffffffffffffffffffffffffffffffffff1673ffffffffffffffffffffffffffffffffffffffff1681526020019081526020016000208190555081156131fb578373ffffffffffffffffffffffffffffffffffffffff168573ffffffffffffffffffffffffffffffffffffffff167f8c5be1e5ebec7d5bd14f71427d1e84f3dd0314c0f7b2291e5b200ac8c7c3b925856040516131f29190613bcf565b60405180910390a35b5050505050565b600061320c611f36565b9050600073ffffffffffffffffffffffffffffffffffffffff168473ffffffffffffffffffffffffffffffffffffffff160361326257818160020160008282546132569190614a9d565b9250508190555061333b565b60008160000160008673ffffffffffffffffffffffffffffffffffffffff1673ffffffffffffffffffffffffffffffffffffffff168152602001908152602001600020549050828110156132f1578481846040517fe450d38c0000000000000000000000000000000000000000000000000000000081526004016132e893929190614efc565b60405180910390fd5b8281038260000160008773ffffffffffffffffffffffffffffffffffffffff1673ffffffffffffffffffffffffffffffffffffffff16815260200190815260200160002081905550505b600073ffffffffffffffffffffffffffffffffffffffff168373ffffffffffffffffffffffffffffffffffffffff1603613386578181600201600082825403925050819055506133d6565b818160000160008573ffffffffffffffffffffffffffffffffffffffff1673ffffffffffffffffffffffffffffffffffffffff168152602001908152602001600020600082825401925050819055505b8273ffffffffffffffffffffffffffffffffffffffff168473ffffffffffffffffffffffffffffffffffffffff167fddf252ad1be2c89b69c2b068fc378daa952ba7f163c4a11628f55a4df523b3ef846040516134339190613bcf565b60405180910390a350505050565b613449610ffa565b61347f576040517f8dfc202b00000000000000000000000000000000000000000000000000000000815260040160405180910390fd5b565b60006134af7f360894a13ba1a3210667c828492db98dca3e2076cc3735a920a3ca505d382bbc60001b613719565b60000160009054906101000a900473ffffffffffffffffffffffffffffffffffffffff16905090565b6134e182613723565b8173ffffffffffffffffffffffffffffffffffffffff167fbc7cd75a20ee27fd9adebab32041f755214dbc6bffa90cc0225b39da2e5c2d3b60405160405180910390a260008151111561353e5761353882826137f0565b50613547565b613546613874565b5b5050565b6000613576828473ffffffffffffffffffffffffffffffffffffffff166138b190919063ffffffff16565b9050600081511415801561359b5750808060200190518101906135999190614d13565b155b156135dd57826040517f5274afe70000000000000000000000000000000000000000000000000000000081526004016135d49190613f22565b60405180910390fd5b505050565b6135ea6138c7565b613620576040517fd7e6bcf800000000000000000000000000000000000000000000000000000000815260040160405180910390fd5b565b61362a6135e2565b6000613634611f36565b905082816003019081613647919061546e565b5081816004019081613659919061546e565b50505050565b6136676135e2565b600073ffffffffffffffffffffffffffffffffffffffff168173ffffffffffffffffffffffffffffffffffffffff16036136d95760006040517f1e4fbdf70000000000000000000000000000000000000000000000000000000081526004016136d09190613f22565b60405180910390fd5b6136e281612b80565b50565b6136ed6135e2565b60006136f76128e7565b905060008160000160006101000a81548160ff02191690831515021790555050565b6000819050919050565b60008173ffffffffffffffffffffffffffffffffffffffff163b0361377f57806040517f4c9c8ce30000000000000000000000000000000000000000000000000000000081526004016137769190613f22565b60405180910390fd5b806137ac7f360894a13ba1a3210667c828492db98dca3e2076cc3735a920a3ca505d382bbc60001b613719565b60000160006101000a81548173ffffffffffffffffffffffffffffffffffffffff021916908373ffffffffffffffffffffffffffffffffffffffff16021790555050565b60606000808473ffffffffffffffffffffffffffffffffffffffff168460405161381a919061539c565b600060405180830381855af49150503d8060008114613855576040519150601f19603f3d011682016040523d82523d6000602084013e61385a565b606091505b509150915061386a8583836138e7565b9250505092915050565b60003411156138af576040517fb398979f00000000000000000000000000000000000000000000000000000000815260040160405180910390fd5b565b60606138bf83836000613976565b905092915050565b60006138d1612cf1565b60000160089054906101000a900460ff16905090565b6060826138fc576138f782613a43565b61396e565b60008251148015613924575060008473ffffffffffffffffffffffffffffffffffffffff163b145b1561396657836040517f9996b31500000000000000000000000000000000000000000000000000000000815260040161395d9190613f22565b60405180910390fd5b81905061396f565b5b9392505050565b6060814710156139bd57306040517fcd7860590000000000000000000000000000000000000000000000000000000081526004016139b49190613f22565b60405180910390fd5b6000808573ffffffffffffffffffffffffffffffffffffffff1684866040516139e6919061539c565b60006040518083038185875af1925050503d8060008114613a23576040519150601f19603f3d011682016040523d82523d6000602084013e613a28565b606091505b5091509150613a388683836138e7565b925050509392505050565b600081511115613a565780518082602001fd5b6040517f1425ea4200000000000000000000000000000000000000000000000000000000815260040160405180910390fd5b6040518060800160405280600073ffffffffffffffffffffffffffffffffffffffff168152602001600073ffffffffffffffffffffffffffffffffffffffff16815260200160008152602001600063ffffffff1681525090565b6040518060a00160405280600073ffffffffffffffffffffffffffffffffffffffff168152602001600073ffffffffffffffffffffffffffffffffffffffff168152602001600073ffffffffffffffffffffffffffffffffffffffff16815260200160008152602001600063ffffffff1681525090565b508054613b659061470b565b6000825580601f10613b775750613b96565b601f016020900490600052602060002090810190613b959190613b99565b5b50565b5b80821115613bb2576000816000905550600101613b9a565b5090565b6000819050919050565b613bc981613bb6565b82525050565b6000602082019050613be46000830184613bc0565b92915050565b600081519050919050565b600082825260208201905092915050565b60005b83811015613c24578082015181840152602081019050613c09565b60008484015250505050565b6000601f19601f8301169050919050565b6000613c4c82613bea565b613c568185613bf5565b9350613c66818560208601613c06565b613c6f81613c30565b840191505092915050565b60006020820190508181036000830152613c948184613c41565b905092915050565b6000604051905090565b600080fd5b600080fd5b613cb981613bb6565b8114613cc457600080fd5b50565b600081359050613cd681613cb0565b92915050565b600060208284031215613cf257613cf1613ca6565b5b6000613d0084828501613cc7565b91505092915050565b600073ffffffffffffffffffffffffffffffffffffffff82169050919050565b6000613d3482613d09565b9050919050565b613d4481613d29565b8114613d4f57600080fd5b50565b600081359050613d6181613d3b565b92915050565b60008060408385031215613d7e57613d7d613ca6565b5b6000613d8c85828601613d52565b9250506020613d9d85828601613cc7565b9150509250929050565b60008115159050919050565b613dbc81613da7565b82525050565b6000602082019050613dd76000830184613db3565b92915050565b60006fffffffffffffffffffffffffffffffff82169050919050565b613e0281613ddd565b8114613e0d57600080fd5b50565b600081359050613e1f81613df9565b92915050565b600060208284031215613e3b57613e3a613ca6565b5b6000613e4984828501613e10565b91505092915050565b6000606082019050613e676000830186613bc0565b613e746020830185613bc0565b613e816040830184613bc0565b949350505050565b600080600060608486031215613ea257613ea1613ca6565b5b6000613eb086828701613d52565b9350506020613ec186828701613d52565b9250506040613ed286828701613cc7565b9150509250925092565b600060ff82169050919050565b613ef281613edc565b82525050565b6000602082019050613f0d6000830184613ee9565b92915050565b613f1c81613d29565b82525050565b6000602082019050613f376000830184613f13565b92915050565b600060208284031215613f5357613f52613ca6565b5b6000613f6184828501613d52565b91505092915050565b600080fd5b600080fd5b7f4e487b7100000000000000000000000000000000000000000000000000000000600052604160045260246000fd5b613fac82613c30565b810181811067ffffffffffffffff82111715613fcb57613fca613f74565b5b80604052505050565b6000613fde613c9c565b9050613fea8282613fa3565b919050565b600067ffffffffffffffff82111561400a57614009613f74565b5b61401382613c30565b9050602081019050919050565b82818337600083830152505050565b600061404261403d84613fef565b613fd4565b90508281526020810184848401111561405e5761405d613f6f565b5b614069848285614020565b509392505050565b600082601f83011261408657614085613f6a565b5b813561409684826020860161402f565b91505092915050565b600080604083850312156140b6576140b5613ca6565b5b60006140c485828601613d52565b925050602083013567ffffffffffffffff8111156140e5576140e4613cab565b5b6140f185828601614071565b9150509250929050565b6000819050919050565b61410e816140fb565b82525050565b60006020820190506141296000830184614105565b92915050565b600081519050919050565b600082825260208201905092915050565b6000819050602082019050919050565b61416481613d29565b82525050565b61417381613bb6565b82525050565b600063ffffffff82169050919050565b61419281614179565b82525050565b6080820160008201516141ae600085018261415b565b5060208201516141c1602085018261415b565b5060408201516141d4604085018261416a565b5060608201516141e76060850182614189565b50505050565b60006141f98383614198565b60808301905092915050565b6000602082019050919050565b600061421d8261412f565b614227818561413a565b93506142328361414b565b8060005b8381101561426357815161424a88826141ed565b975061425583614205565b925050600181019050614236565b5085935050505092915050565b6000602082019050818103600083015261428a8184614212565b905092915050565b600061429d82613d29565b9050919050565b6142ad81614292565b81146142b857600080fd5b50565b6000813590506142ca816142a4565b92915050565b6000602082840312156142e6576142e5613ca6565b5b60006142f4848285016142bb565b91505092915050565b6000806040838503121561431457614313613ca6565b5b600061432285828601613cc7565b925050602061433385828601613d52565b9150509250929050565b60006040820190506143526000830185613bc0565b61435f6020830184613bc0565b9392505050565b600067ffffffffffffffff82111561438157614380613f74565b5b61438a82613c30565b9050602081019050919050565b60006143aa6143a584614366565b613fd4565b9050828152602081018484840111156143c6576143c5613f6f565b5b6143d1848285614020565b509392505050565b600082601f8301126143ee576143ed613f6a565b5b81356143fe848260208601614397565b91505092915050565b6000806000806080858703121561442157614420613ca6565b5b600085013567ffffffffffffffff81111561443f5761443e613cab565b5b61444b878288016143d9565b945050602085013567ffffffffffffffff81111561446c5761446b613cab565b5b614478878288016143d9565b9350506040614489878288016142bb565b925050606061449a87828801613d52565b91505092959194509250565b600081519050919050565b600082825260208201905092915050565b6000819050602082019050919050565b60a0820160008201516144e8600085018261415b565b5060208201516144fb602085018261415b565b50604082015161450e604085018261415b565b506060820151614521606085018261416a565b5060808201516145346080850182614189565b50505050565b600061454683836144d2565b60a08301905092915050565b6000602082019050919050565b600061456a826144a6565b61457481856144b1565b935061457f836144c2565b8060005b838110156145b0578151614597888261453a565b97506145a283614552565b925050600181019050614583565b5085935050505092915050565b600060208201905081810360008301526145d7818461455f565b905092915050565b6145e881614179565b82525050565b600060208201905061460360008301846145df565b92915050565b60008060006060848603121561462257614621613ca6565b5b600061463086828701613cc7565b935050602061464186828701613d52565b925050604061465286828701613d52565b9150509250925092565b6000806040838503121561467357614672613ca6565b5b600061468185828601613d52565b925050602061469285828601613d52565b9150509250929050565b600080604083850312156146b3576146b2613ca6565b5b60006146c185828601613e10565b92505060206146d285828601613cc7565b9150509250929050565b7f4e487b7100000000000000000000000000000000000000000000000000000000600052602260045260246000fd5b6000600282049050600182168061472357607f821691505b602082108103614736576147356146dc565b5b50919050565b7f4e487b7100000000000000000000000000000000000000000000000000000000600052601160045260246000fd5b60008160011c9050919050565b6000808291508390505b60018511156147c25780860481111561479e5761479d61473c565b5b60018516156147ad5780820291505b80810290506147bb8561476b565b9450614782565b94509492505050565b6000826147db5760019050614897565b816147e95760009050614897565b81600181146147ff576002811461480957614838565b6001915050614897565b60ff84111561481b5761481a61473c565b5b8360020a9150848211156148325761483161473c565b5b50614897565b5060208310610133831016604e8410600b841016171561486d5782820a9050838111156148685761486761473c565b5b614897565b61487a8484846001614778565b925090508184048111156148915761489061473c565b5b81810290505b9392505050565b60006148a982613bb6565b91506148b483613bb6565b92506148e17fffffffffffffffffffffffffffffffffffffffffffffffffffffffffffffffff84846147cb565b905092915050565b60006148f482613bb6565b91506148ff83613bb6565b92508282039050818111156149175761491661473c565b5b92915050565b7f5072696365206973206f75746461746564000000000000000000000000000000600082015250565b6000614953601183613bf5565b915061495e8261491d565b602082019050919050565b6000602082019050818103600083015261498281614946565b9050919050565b600080fd5b60008151905061499d81613d3b565b92915050565b6000815190506149b281613cb0565b92915050565b6149c181614179565b81146149cc57600080fd5b50565b6000815190506149de816149b8565b92915050565b600060a082840312156149fa576149f9614989565b5b614a0460a0613fd4565b90506000614a148482850161498e565b6000830152506020614a288482850161498e565b6020830152506040614a3c8482850161498e565b6040830152506060614a50848285016149a3565b6060830152506080614a64848285016149cf565b60808301525092915050565b600060a08284031215614a8657614a85613ca6565b5b6000614a94848285016149e4565b91505092915050565b6000614aa882613bb6565b9150614ab383613bb6565b9250828201905080821115614acb57614aca61473c565b5b92915050565b6000614adc82613bb6565b91507fffffffffffffffffffffffffffffffffffffffffffffffffffffffffffffffff8203614b0e57614b0d61473c565b5b600182019050919050565b600060808284031215614b2f57614b2e614989565b5b614b396080613fd4565b90506000614b498482850161498e565b6000830152506020614b5d8482850161498e565b6020830152506040614b71848285016149a3565b6040830152506060614b85848285016149cf565b60608301525092915050565b600060808284031215614ba757614ba6613ca6565b5b6000614bb584828501614b19565b91505092915050565b6000614bc982613ddd565b91506fffffffffffffffffffffffffffffffff8203614beb57614bea61473c565b5b600182019050919050565b7f4e487b7100000000000000000000000000000000000000000000000000000000600052603260045260246000fd5b600060208284031215614c3b57614c3a613ca6565b5b6000614c49848285016149a3565b91505092915050565b7f436f6e747261637420686173206e6f2062616c616e6365000000000000000000600082015250565b6000614c88601783613bf5565b9150614c9382614c52565b602082019050919050565b60006020820190508181036000830152614cb781614c7b565b9050919050565b6000604082019050614cd36000830185613f13565b614ce06020830184613bc0565b9392505050565b614cf081613da7565b8114614cfb57600080fd5b50565b600081519050614d0d81614ce7565b92915050565b600060208284031215614d2957614d28613ca6565b5b6000614d3784828501614cfe565b91505092915050565b7f5472616e73666572206661696c65640000000000000000000000000000000000600082015250565b6000614d76600f83613bf5565b9150614d8182614d40565b602082019050919050565b60006020820190508181036000830152614da581614d69565b9050919050565b608082016000820151614dc2600085018261415b565b506020820151614dd5602085018261415b565b506040820151614de8604085018261416a565b506060820151614dfb6060850182614189565b50505050565b6000608082019050614e166000830184614dac565b92915050565b7f5072696365206d7573742062652067726561746572207468616e203000000000600082015250565b6000614e52601c83613bf5565b9150614e5d82614e1c565b602082019050919050565b60006020820190508181036000830152614e8181614e45565b9050919050565b6000819050919050565b600067ffffffffffffffff82169050919050565b6000819050919050565b6000614ecb614ec6614ec184614e88565b614ea6565b614e92565b9050919050565b614edb81614eb0565b82525050565b6000602082019050614ef66000830184614ed2565b92915050565b6000606082019050614f116000830186613f13565b614f1e6020830185613bc0565b614f2b6040830184613bc0565b949350505050565b60a082016000820151614f49600085018261415b565b506020820151614f5c602085018261415b565b506040820151614f6f604085018261415b565b506060820151614f82606085018261416a565b506080820151614f956080850182614189565b50505050565b600060a082019050614fb06000830184614f33565b92915050565b7f496e636f727265637420616d6f756e7420676976656e00000000000000000000600082015250565b6000614fec601683613bf5565b9150614ff782614fb6565b602082019050919050565b6000602082019050818103600083015261501b81614fdf565b9050919050565b7f4e487b7100000000000000000000000000000000000000000000000000000000600052601260045260246000fd5b61505a816140fb565b811461506557600080fd5b50565b60008151905061507781615051565b92915050565b60006020828403121561509357615092613ca6565b5b60006150a184828501615068565b91505092915050565b60006060820190506150bf6000830186613f13565b6150cc6020830185613f13565b6150d96040830184613bc0565b949350505050565b600081519050919050565b60008190508160005260206000209050919050565b60006020601f8301049050919050565b600082821b905092915050565b60006008830261514e7fffffffffffffffffffffffffffffffffffffffffffffffffffffffffffffffff82615111565b6151588683615111565b95508019841693508086168417925050509392505050565b600061518b61518661518184613bb6565b614ea6565b613bb6565b9050919050565b6000819050919050565b6151a583615170565b6151b96151b182615192565b84845461511e565b825550505050565b600090565b6151ce6151c1565b6151d981848461519c565b505050565b5b818110156151fd576151f26000826151c6565b6001810190506151df565b5050565b601f82111561524257615213816150ec565b61521c84615101565b8101602085101561522b578190505b61523f61523785615101565b8301826151de565b50505b505050565b600082821c905092915050565b600061526560001984600802615247565b1980831691505092915050565b600061527e8383615254565b9150826002028217905092915050565b615297826150e1565b67ffffffffffffffff8111156152b0576152af613f74565b5b6152ba825461470b565b6152c5828285615201565b600060209050601f8311600181146152f857600084156152e6578287015190505b6152f08582615272565b865550615358565b601f198416615306866150ec565b60005b8281101561532e57848901518255600182019150602085019450602081019050615309565b8683101561534b5784890151615347601f891682615254565b8355505b6001600288020188555050505b505050505050565b600081905092915050565b6000615376826150e1565b6153808185615360565b9350615390818560208601613c06565b80840191505092915050565b60006153a8828461536b565b915081905092915050565b7f4e487b7100000000000000000000000000000000000000000000000000000000600052602160045260246000fd5b60006153ed82613edc565b91506153f883613edc565b92508261540857615407615022565b5b828206905092915050565b60008190508160005260206000209050919050565b601f8211156154695761543a81615413565b61544384615101565b81016020851015615452578190505b61546661545e85615101565b8301826151de565b50505b505050565b61547782613bea565b67ffffffffffffffff8111156154905761548f613f74565b5b61549a825461470b565b6154a5828285615428565b600060209050601f8311600181146154d857600084156154c6578287015190505b6154d08582615272565b865550615538565b601f1984166154e686615413565b60005b8281101561550e578489015182556001820191506020850194506020810190506154e9565b8683101561552b5784890151615527601f891682615254565b8355505b6001600288020188555050505b50505050505056fea2646970667358221220a723e47bb41a9997b81a0f08ce667393d701137480b9de2f3e4b429a433fc69e64736f6c63430008140033",
  "devdoc": {
    "errors": {
      "AddressEmptyCode(address)": [
        {
          "details": "There's no code at `target` (it is not a contract)."
        }
      ],
      "AddressInsufficientBalance(address)": [
        {
          "details": "The ETH balance of the account is not enough to perform the operation."
        }
      ],
      "ERC1967InvalidImplementation(address)": [
        {
          "details": "The `implementation` of the proxy is invalid."
        }
      ],
      "ERC1967NonPayable()": [
        {
          "details": "An upgrade function sees `msg.value > 0` that may be lost."
        }
      ],
      "ERC20InsufficientAllowance(address,uint256,uint256)": [
        {
          "details": "Indicates a failure with the `spender`s `allowance`. Used in transfers.",
          "params": {
            "allowance": "Amount of tokens a `spender` is allowed to operate with.",
            "needed": "Minimum amount required to perform a transfer.",
            "spender": "Address that may be allowed to operate on tokens without being their owner."
          }
        }
      ],
      "ERC20InsufficientBalance(address,uint256,uint256)": [
        {
          "details": "Indicates an error related to the current `balance` of a `sender`. Used in transfers.",
          "params": {
            "balance": "Current balance for the interacting account.",
            "needed": "Minimum amount required to perform a transfer.",
            "sender": "Address whose tokens are being transferred."
          }
        }
      ],
      "ERC20InvalidApprover(address)": [
        {
          "details": "Indicates a failure with the `approver` of a token to be approved. Used in approvals.",
          "params": {
            "approver": "Address initiating an approval operation."
          }
        }
      ],
      "ERC20InvalidReceiver(address)": [
        {
          "details": "Indicates a failure with the token `receiver`. Used in transfers.",
          "params": {
            "receiver": "Address to which tokens are being transferred."
          }
        }
      ],
      "ERC20InvalidSender(address)": [
        {
          "details": "Indicates a failure with the token `sender`. Used in transfers.",
          "params": {
            "sender": "Address whose tokens are being transferred."
          }
        }
      ],
      "ERC20InvalidSpender(address)": [
        {
          "details": "Indicates a failure with the `spender` to be approved. Used in approvals.",
          "params": {
            "spender": "Address that may be allowed to operate on tokens without being their owner."
          }
        }
      ],
      "ERC4626ExceededMaxRedeem(address,uint256,uint256)": [
        {
          "details": "Attempted to redeem more shares than the max amount for `receiver`."
        }
      ],
      "EnforcedPause()": [
        {
          "details": "The operation failed because the contract is paused."
        }
      ],
      "ExpectedPause()": [
        {
          "details": "The operation failed because the contract is not paused."
        }
      ],
      "FailedInnerCall()": [
        {
          "details": "A call to an address target failed. The target may have reverted."
        }
      ],
      "InvalidInitialization()": [
        {
          "details": "The contract is already initialized."
        }
      ],
      "MathOverflowedMulDiv()": [
        {
          "details": "Muldiv operation overflow."
        }
      ],
      "NotInitializing()": [
        {
          "details": "The contract is not initializing."
        }
      ],
      "OwnableInvalidOwner(address)": [
        {
          "details": "The owner is not a valid owner account. (eg. `address(0)`)"
        }
      ],
      "OwnableUnauthorizedAccount(address)": [
        {
          "details": "The caller account is not authorized to perform an operation."
        }
      ],
      "QueueEmpty()": [
        {
          "details": "An operation (e.g. {front}) couldn't be completed due to the queue being empty."
        }
      ],
      "QueueFull()": [
        {
          "details": "A push operation couldn't be completed due to the queue being full."
        }
      ],
      "QueueOutOfBounds()": [
        {
          "details": "An operation (e.g. {at}) couldn't be completed due to an index being out of bounds."
        }
      ],
      "SafeERC20FailedOperation(address)": [
        {
          "details": "An operation with an ERC20 token failed."
        }
      ],
      "UUPSUnauthorizedCallContext()": [
        {
          "details": "The call is from an unauthorized context."
        }
      ],
      "UUPSUnsupportedProxiableUUID(bytes32)": [
        {
          "details": "The storage `slot` is unsupported as a UUID."
        }
      ]
    },
    "events": {
      "Approval(address,address,uint256)": {
        "details": "Emitted when the allowance of a `spender` for an `owner` is set by a call to {approve}. `value` is the new allowance."
      },
      "Initialized(uint64)": {
        "details": "Triggered when the contract has been initialized or reinitialized."
      },
      "Paused(address)": {
        "details": "Emitted when the pause is triggered by `account`."
      },
      "Transfer(address,address,uint256)": {
        "details": "Emitted when `value` tokens are moved from one account (`from`) to another (`to`). Note that `value` may be zero."
      },
      "Unpaused(address)": {
        "details": "Emitted when the pause is lifted by `account`."
      },
      "Upgraded(address)": {
        "details": "Emitted when the implementation is upgraded."
      }
    },
    "kind": "dev",
    "methods": {
      "allowance(address,address)": {
        "details": "See {IERC20-allowance}."
      },
      "approve(address,uint256)": {
        "details": "See {IERC20-approve}. NOTE: If `value` is the maximum `uint256`, the allowance is not updated on `transferFrom`. This is semantically equivalent to an infinite approval. Requirements: - `spender` cannot be the zero address."
      },
      "balanceOf(address)": {
        "details": "See {IERC20-balanceOf}."
      },
      "decimals()": {
        "details": "Returns the number of decimals used to get its user representation. For example, if `decimals` equals `2`, a balance of `505` tokens should be displayed to a user as `5.05` (`505 / 10 ** 2`). Tokens usually opt for a value of 18, imitating the relationship between Ether and Wei. This is the default value returned by this function, unless it's overridden. NOTE: This information is only used for _display_ purposes: it in no way affects any of the arithmetic of the contract, including {IERC20-balanceOf} and {IERC20-transfer}."
      },
      "maxRedeem(address)": {
        "details": "See {IERC4626-maxRedeem}. "
      },
      "name()": {
        "details": "Returns the name of the token."
      },
      "owner()": {
        "details": "Returns the address of the current owner."
      },
      "paused()": {
        "details": "Returns true if the contract is paused, and false otherwise."
      },
      "proxiableUUID()": {
        "details": "Implementation of the ERC1822 {proxiableUUID} function. This returns the storage slot used by the implementation. It is used to validate the implementation's compatibility when performing an upgrade. IMPORTANT: A proxy pointing at a proxiable contract should not be considered proxiable itself, because this risks bricking a proxy that upgrades to it, by delegating to itself until out of gas. Thus it is critical that this function revert if invoked through a proxy. This is guaranteed by the `notDelegated` modifier."
      },
      "renounceOwnership()": {
        "details": "Leaves the contract without owner. It will not be possible to call `onlyOwner` functions. Can only be called by the current owner. NOTE: Renouncing ownership will leave the contract without an owner, thereby disabling any functionality that is only available to the owner."
      },
      "symbol()": {
        "details": "Returns the symbol of the token, usually a shorter version of the name."
      },
      "totalSupply()": {
        "details": "See {IERC20-totalSupply}."
      },
      "transfer(address,uint256)": {
        "details": "See {IERC20-transfer}. Requirements: - `to` cannot be the zero address. - the caller must have a balance of at least `value`."
      },
      "transferFrom(address,address,uint256)": {
        "details": "See {IERC20-transferFrom}. Emits an {Approval} event indicating the updated allowance. This is not required by the EIP. See the note at the beginning of {ERC20}. NOTE: Does not update the allowance if the current allowance is the maximum `uint256`. Requirements: - `from` and `to` cannot be the zero address. - `from` must have a balance of at least `value`. - the caller must have allowance for ``from``'s tokens of at least `value`."
      },
      "transferOwnership(address)": {
        "details": "Transfers ownership of the contract to a new account (`newOwner`). Can only be called by the current owner."
      },
      "upgradeToAndCall(address,bytes)": {
        "custom:oz-upgrades-unsafe-allow-reachable": "delegatecall",
        "details": "Upgrade the implementation of the proxy to `newImplementation`, and subsequently execute the function call encoded in `data`. Calls {_authorizeUpgrade}. Emits an {Upgraded} event."
      },
      "withdrawalToOwner(address)": {
        "details": "ETH can't be recieve as the contract has no fallback function"
      }
    },
    "version": 1
  },
  "userdoc": {
    "kind": "user",
    "methods": {},
    "version": 1
  },
  "storageLayout": {
    "storage": [
      {
        "astId": 4359,
        "contract": "contracts/Vault.sol:Vault",
        "label": "_asset",
        "offset": 0,
        "slot": "0",
        "type": "t_contract(IERC20)2522"
      },
      {
        "astId": 4361,
        "contract": "contracts/Vault.sol:Vault",
        "label": "_decimals",
        "offset": 20,
        "slot": "0",
        "type": "t_uint8"
      },
      {
        "astId": 4363,
        "contract": "contracts/Vault.sol:Vault",
        "label": "createdAt",
        "offset": 21,
        "slot": "0",
        "type": "t_uint32"
      },
      {
        "astId": 4365,
        "contract": "contracts/Vault.sol:Vault",
        "label": "priceUpdatedAt",
        "offset": 25,
        "slot": "0",
        "type": "t_uint32"
      },
      {
        "astId": 4367,
        "contract": "contracts/Vault.sol:Vault",
        "label": "price",
        "offset": 0,
        "slot": "1",
        "type": "t_uint256"
      },
      {
        "astId": 4369,
        "contract": "contracts/Vault.sol:Vault",
        "label": "withdrawalFee",
        "offset": 0,
        "slot": "2",
        "type": "t_uint256"
      },
      {
        "astId": 4372,
        "contract": "contracts/Vault.sol:Vault",
        "label": "_depositQueue",
        "offset": 0,
        "slot": "3",
        "type": "t_struct(BytesDeque)5383_storage"
      },
      {
        "astId": 4375,
        "contract": "contracts/Vault.sol:Vault",
        "label": "_redeemQueue",
        "offset": 0,
        "slot": "5",
        "type": "t_struct(BytesDeque)5383_storage"
      }
    ],
    "types": {
      "t_bytes_storage": {
        "encoding": "bytes",
        "label": "bytes",
        "numberOfBytes": "32"
      },
      "t_contract(IERC20)2522": {
        "encoding": "inplace",
        "label": "contract IERC20",
        "numberOfBytes": "20"
      },
      "t_mapping(t_uint128,t_bytes_storage)": {
        "encoding": "mapping",
        "key": "t_uint128",
        "label": "mapping(uint128 => bytes)",
        "numberOfBytes": "32",
        "value": "t_bytes_storage"
      },
      "t_struct(BytesDeque)5383_storage": {
        "encoding": "inplace",
        "label": "struct DoubleEndedQueue.BytesDeque",
        "members": [
          {
            "astId": 5376,
            "contract": "contracts/Vault.sol:Vault",
            "label": "_begin",
            "offset": 0,
            "slot": "0",
            "type": "t_uint128"
          },
          {
            "astId": 5378,
            "contract": "contracts/Vault.sol:Vault",
            "label": "_end",
            "offset": 16,
            "slot": "0",
            "type": "t_uint128"
          },
          {
            "astId": 5382,
            "contract": "contracts/Vault.sol:Vault",
            "label": "_data",
            "offset": 0,
            "slot": "1",
            "type": "t_mapping(t_uint128,t_bytes_storage)"
          }
        ],
        "numberOfBytes": "64"
      },
      "t_uint128": {
        "encoding": "inplace",
        "label": "uint128",
        "numberOfBytes": "16"
      },
      "t_uint256": {
        "encoding": "inplace",
        "label": "uint256",
        "numberOfBytes": "32"
      },
      "t_uint32": {
        "encoding": "inplace",
        "label": "uint32",
        "numberOfBytes": "4"
      },
      "t_uint8": {
        "encoding": "inplace",
        "label": "uint8",
        "numberOfBytes": "1"
      }
    }
  }
}